{
  "address": "0xDA4A8f127131DB745Cc4be4b65dAFb7B47a9D8F5",
  "abi": [
    {
      "inputs": [],
      "stateMutability": "nonpayable",
      "type": "constructor"
    },
    {
      "anonymous": false,
      "inputs": [
        {
          "indexed": true,
          "internalType": "address",
          "name": "owner",
          "type": "address"
        },
        {
          "indexed": true,
          "internalType": "address",
          "name": "approved",
          "type": "address"
        },
        {
          "indexed": true,
          "internalType": "uint256",
          "name": "tokenId",
          "type": "uint256"
        }
      ],
      "name": "Approval",
      "type": "event"
    },
    {
      "anonymous": false,
      "inputs": [
        {
          "indexed": true,
          "internalType": "address",
          "name": "owner",
          "type": "address"
        },
        {
          "indexed": true,
          "internalType": "address",
          "name": "operator",
          "type": "address"
        },
        {
          "indexed": false,
          "internalType": "bool",
          "name": "approved",
          "type": "bool"
        }
      ],
      "name": "ApprovalForAll",
      "type": "event"
    },
    {
      "anonymous": false,
      "inputs": [
        {
          "indexed": true,
          "internalType": "address",
          "name": "previousOwner",
          "type": "address"
        },
        {
          "indexed": true,
          "internalType": "address",
          "name": "newOwner",
          "type": "address"
        }
      ],
      "name": "OwnershipTransferred",
      "type": "event"
    },
    {
      "anonymous": false,
      "inputs": [
        {
          "indexed": true,
          "internalType": "address",
          "name": "from",
          "type": "address"
        },
        {
          "indexed": true,
          "internalType": "address",
          "name": "to",
          "type": "address"
        },
        {
          "indexed": true,
          "internalType": "uint256",
          "name": "tokenId",
          "type": "uint256"
        }
      ],
      "name": "Transfer",
      "type": "event"
    },
    {
      "inputs": [
        {
          "internalType": "address",
          "name": "to",
          "type": "address"
        },
        {
          "internalType": "uint256",
          "name": "tokenId",
          "type": "uint256"
        }
      ],
      "name": "approve",
      "outputs": [],
      "stateMutability": "nonpayable",
      "type": "function"
    },
    {
      "inputs": [
        {
          "internalType": "address",
          "name": "owner",
          "type": "address"
        }
      ],
      "name": "balanceOf",
      "outputs": [
        {
          "internalType": "uint256",
          "name": "",
          "type": "uint256"
        }
      ],
      "stateMutability": "view",
      "type": "function"
    },
    {
      "inputs": [
        {
          "internalType": "uint256",
          "name": "tokenId",
          "type": "uint256"
        }
      ],
      "name": "getApproved",
      "outputs": [
        {
          "internalType": "address",
          "name": "",
          "type": "address"
        }
      ],
      "stateMutability": "view",
      "type": "function"
    },
    {
      "inputs": [
        {
          "internalType": "uint256",
          "name": "_tokenId",
          "type": "uint256"
        }
      ],
      "name": "getInfo",
      "outputs": [
        {
          "components": [
            {
              "internalType": "uint256",
              "name": "tokenId",
              "type": "uint256"
            },
            {
              "internalType": "string",
              "name": "name",
              "type": "string"
            },
            {
              "internalType": "address",
              "name": "owner",
              "type": "address"
            },
            {
              "internalType": "uint256",
              "name": "level",
              "type": "uint256"
            },
            {
              "internalType": "uint256",
              "name": "toNextlevel",
              "type": "uint256"
            }
          ],
          "internalType": "struct CryplantNFT.Info",
          "name": "",
          "type": "tuple"
        }
      ],
      "stateMutability": "view",
      "type": "function"
    },
    {
      "inputs": [
        {
          "internalType": "address",
          "name": "owner",
          "type": "address"
        },
        {
          "internalType": "address",
          "name": "operator",
          "type": "address"
        }
      ],
      "name": "isApprovedForAll",
      "outputs": [
        {
          "internalType": "bool",
          "name": "",
          "type": "bool"
        }
      ],
      "stateMutability": "view",
      "type": "function"
    },
    {
      "inputs": [],
      "name": "name",
      "outputs": [
        {
          "internalType": "string",
          "name": "",
          "type": "string"
        }
      ],
      "stateMutability": "view",
      "type": "function"
    },
    {
      "inputs": [],
      "name": "owner",
      "outputs": [
        {
          "internalType": "address",
          "name": "",
          "type": "address"
        }
      ],
      "stateMutability": "view",
      "type": "function"
    },
    {
      "inputs": [
        {
          "internalType": "uint256",
          "name": "tokenId",
          "type": "uint256"
        }
      ],
      "name": "ownerOf",
      "outputs": [
        {
          "internalType": "address",
          "name": "",
          "type": "address"
        }
      ],
      "stateMutability": "view",
      "type": "function"
    },
    {
      "inputs": [],
      "name": "renounceOwnership",
      "outputs": [],
      "stateMutability": "nonpayable",
      "type": "function"
    },
    {
      "inputs": [
        {
          "components": [
            {
              "internalType": "address",
              "name": "owner",
              "type": "address"
            },
            {
              "internalType": "string",
              "name": "name",
              "type": "string"
            },
            {
              "internalType": "string",
              "name": "uri",
              "type": "string"
            },
            {
              "internalType": "uint256",
              "name": "level",
              "type": "uint256"
            },
            {
              "internalType": "uint256",
              "name": "toNextlevel",
              "type": "uint256"
            }
          ],
          "internalType": "struct CryplantNFT.Params[]",
          "name": "_params",
          "type": "tuple[]"
        }
      ],
      "name": "safeMint",
      "outputs": [],
      "stateMutability": "nonpayable",
      "type": "function"
    },
    {
      "inputs": [
        {
          "internalType": "address",
          "name": "from",
          "type": "address"
        },
        {
          "internalType": "address",
          "name": "to",
          "type": "address"
        },
        {
          "internalType": "uint256",
          "name": "tokenId",
          "type": "uint256"
        }
      ],
      "name": "safeTransferFrom",
      "outputs": [],
      "stateMutability": "nonpayable",
      "type": "function"
    },
    {
      "inputs": [
        {
          "internalType": "address",
          "name": "from",
          "type": "address"
        },
        {
          "internalType": "address",
          "name": "to",
          "type": "address"
        },
        {
          "internalType": "uint256",
          "name": "tokenId",
          "type": "uint256"
        },
        {
          "internalType": "bytes",
          "name": "data",
          "type": "bytes"
        }
      ],
      "name": "safeTransferFrom",
      "outputs": [],
      "stateMutability": "nonpayable",
      "type": "function"
    },
    {
      "inputs": [
        {
          "internalType": "address",
          "name": "operator",
          "type": "address"
        },
        {
          "internalType": "bool",
          "name": "approved",
          "type": "bool"
        }
      ],
      "name": "setApprovalForAll",
      "outputs": [],
      "stateMutability": "nonpayable",
      "type": "function"
    },
    {
      "inputs": [
        {
          "internalType": "bytes4",
          "name": "interfaceId",
          "type": "bytes4"
        }
      ],
      "name": "supportsInterface",
      "outputs": [
        {
          "internalType": "bool",
          "name": "",
          "type": "bool"
        }
      ],
      "stateMutability": "view",
      "type": "function"
    },
    {
      "inputs": [],
      "name": "symbol",
      "outputs": [
        {
          "internalType": "string",
          "name": "",
          "type": "string"
        }
      ],
      "stateMutability": "view",
      "type": "function"
    },
    {
      "inputs": [
        {
          "internalType": "uint256",
          "name": "tokenId",
          "type": "uint256"
        }
      ],
      "name": "tokenURI",
      "outputs": [
        {
          "internalType": "string",
          "name": "",
          "type": "string"
        }
      ],
      "stateMutability": "view",
      "type": "function"
    },
    {
      "inputs": [
        {
          "internalType": "address",
          "name": "from",
          "type": "address"
        },
        {
          "internalType": "address",
          "name": "to",
          "type": "address"
        },
        {
          "internalType": "uint256",
          "name": "tokenId",
          "type": "uint256"
        }
      ],
      "name": "transferFrom",
      "outputs": [],
      "stateMutability": "nonpayable",
      "type": "function"
    },
    {
      "inputs": [
        {
          "internalType": "address",
          "name": "newOwner",
          "type": "address"
        }
      ],
      "name": "transferOwnership",
      "outputs": [],
      "stateMutability": "nonpayable",
      "type": "function"
    }
  ],
  "transactionHash": "0x48f3170fd365d132b8e6c7c2b10d6cb4d039d80374a4223b5817f5192119fd6b",
  "args": [],
  "numDeployments": 1,
  "solcInputHash": "909355b7e1a2b50c580dc493151dab97",
  "bytecode": "0x60806040523480156200001157600080fd5b50604080518082018252600c81526b10dc9e5c1b185b9d0813919560a21b60208083019182528351808501909452600884526710d496541310539560c21b908401528151919291620000669160009162000115565b5080516200007c90600190602084019062000115565b5050506200009962000093620000b660201b60201c565b620000ba565b620000b060086200010c60201b62000a581760201c565b620001f8565b3390565b600780546001600160a01b038381166001600160a01b0319831681179093556040519116919082907f8be0079c531659141344cd1fd0a4f28419497f9722a3daafe3b4186f6b6457e090600090a35050565b80546001019055565b8280546200012390620001bb565b90600052602060002090601f01602090048101928262000147576000855562000192565b82601f106200016257805160ff191683800117855562000192565b8280016001018555821562000192579182015b828111156200019257825182559160200191906001019062000175565b50620001a0929150620001a4565b5090565b5b80821115620001a05760008155600101620001a5565b600181811c90821680620001d057607f821691505b60208210811415620001f257634e487b7160e01b600052602260045260246000fd5b50919050565b611b5280620002086000396000f3fe608060405234801561001057600080fd5b50600436106100f65760003560e01c8063715018a611610092578063715018a6146101f25780638da5cb5b146101fa57806395d89b411461020b578063a22cb46514610213578063b88d4fde14610226578063c87b56dd14610239578063e8aa1dae1461024c578063e985e9c51461025f578063f2fde38b1461027257600080fd5b806301ffc9a7146100fb57806306fdde0314610123578063081812fc14610138578063095ea7b3146101635780631a3cd59a1461017857806323b872dd1461019857806342842e0e146101ab5780636352211e146101be57806370a08231146101d1575b600080fd5b61010e6101093660046114f8565b610285565b60405190151581526020015b60405180910390f35b61012b6102d7565b60405161011a919061156d565b61014b610146366004611580565b610369565b6040516001600160a01b03909116815260200161011a565b6101766101713660046115b5565b610390565b005b61018b610186366004611580565b6104ab565b60405161011a91906115df565b6101766101a6366004611637565b6105ce565b6101766101b9366004611637565b6105ff565b61014b6101cc366004611580565b61061a565b6101e46101df366004611673565b61064f565b60405190815260200161011a565b6101766106d5565b6007546001600160a01b031661014b565b61012b6106e9565b61017661022136600461168e565b6106f8565b6101766102343660046116e0565b610707565b61012b610247366004611580565b61073f565b61017661025a3660046117bc565b61074a565b61010e61026d366004611831565b6109b1565b610176610280366004611673565b6109df565b60006001600160e01b031982166380ac58cd60e01b14806102b657506001600160e01b03198216635b5e139f60e01b145b806102d157506301ffc9a760e01b6001600160e01b03198316145b92915050565b6060600080546102e690611864565b80601f016020809104026020016040519081016040528092919081815260200182805461031290611864565b801561035f5780601f106103345761010080835404028352916020019161035f565b820191906000526020600020905b81548152906001019060200180831161034257829003601f168201915b5050505050905090565b600061037482610a61565b506000908152600460205260409020546001600160a01b031690565b600061039b8261061a565b9050806001600160a01b0316836001600160a01b0316141561040e5760405162461bcd60e51b815260206004820152602160248201527f4552433732313a20617070726f76616c20746f2063757272656e74206f776e656044820152603960f91b60648201526084015b60405180910390fd5b336001600160a01b038216148061042a575061042a81336109b1565b61049c5760405162461bcd60e51b815260206004820152603e60248201527f4552433732313a20617070726f76652063616c6c6572206973206e6f7420746f60448201527f6b656e206f776e6572206e6f7220617070726f76656420666f7220616c6c00006064820152608401610405565b6104a68383610a86565b505050565b6104e66040518060a00160405280600081526020016060815260200160006001600160a01b0316815260200160008152602001600081525090565b600960008381526020019081526020016000206040518060a00160405290816000820154815260200160018201805461051e90611864565b80601f016020809104026020016040519081016040528092919081815260200182805461054a90611864565b80156105975780601f1061056c57610100808354040283529160200191610597565b820191906000526020600020905b81548152906001019060200180831161057a57829003601f168201915b505050918352505060028201546001600160a01b031660208201526003820154604082015260049091015460609091015292915050565b6105d83382610af4565b6105f45760405162461bcd60e51b81526004016104059061189f565b6104a6838383610b53565b6104a683838360405180602001604052806000815250610707565b6000818152600260205260408120546001600160a01b0316806102d15760405162461bcd60e51b8152600401610405906118ed565b60006001600160a01b0382166106b95760405162461bcd60e51b815260206004820152602960248201527f4552433732313a2061646472657373207a65726f206973206e6f7420612076616044820152683634b21037bbb732b960b91b6064820152608401610405565b506001600160a01b031660009081526003602052604090205490565b6106dd610cef565b6106e76000610d49565b565b6060600180546102e690611864565b610703338383610d9b565b5050565b6107113383610af4565b61072d5760405162461bcd60e51b81526004016104059061189f565b61073984848484610e66565b50505050565b60606102d182610e99565b610752610cef565b60005b818110156104a657600061076860085490565b90506040518060a0016040528082815260200185858581811061078d5761078d61191f565b905060200281019061079f9190611935565b6107ad906020810190611955565b8080601f0160208091040260200160405190810160405280939291908181526020018383808284376000920191909152505050908252506020018585858181106107f9576107f961191f565b905060200281019061080b9190611935565b610819906020810190611673565b6001600160a01b031681526020018585858181106108395761083961191f565b905060200281019061084b9190611935565b6060013581526020018585858181106108665761086661191f565b90506020028101906108789190611935565b60800135905260008281526009602090815260409091208251815582820151805191926108ad92600185019290910190611449565b5060408201516002820180546001600160a01b0319166001600160a01b039092169190911790556060820151600382015560809091015160049091015560088054600101905561092e8484848181106109085761090861191f565b905060200281019061091a9190611935565b610928906020810190611673565b82610fa2565b61099e818585858181106109445761094461191f565b90506020028101906109569190611935565b610964906040810190611955565b8080601f016020809104026020016040519081016040528093929190818152602001838380828437600092019190915250610fbc92505050565b50806109a9816119b9565b915050610755565b6001600160a01b03918216600090815260056020908152604080832093909416825291909152205460ff1690565b6109e7610cef565b6001600160a01b038116610a4c5760405162461bcd60e51b815260206004820152602660248201527f4f776e61626c653a206e6577206f776e657220697320746865207a65726f206160448201526564647265737360d01b6064820152608401610405565b610a5581610d49565b50565b80546001019055565b610a6a81611047565b610a555760405162461bcd60e51b8152600401610405906118ed565b600081815260046020526040902080546001600160a01b0319166001600160a01b0384169081179091558190610abb8261061a565b6001600160a01b03167f8c5be1e5ebec7d5bd14f71427d1e84f3dd0314c0f7b2291e5b200ac8c7c3b92560405160405180910390a45050565b600080610b008361061a565b9050806001600160a01b0316846001600160a01b03161480610b275750610b2781856109b1565b80610b4b5750836001600160a01b0316610b4084610369565b6001600160a01b0316145b949350505050565b826001600160a01b0316610b668261061a565b6001600160a01b031614610bca5760405162461bcd60e51b815260206004820152602560248201527f4552433732313a207472616e736665722066726f6d20696e636f72726563742060448201526437bbb732b960d91b6064820152608401610405565b6001600160a01b038216610c2c5760405162461bcd60e51b8152602060048201526024808201527f4552433732313a207472616e7366657220746f20746865207a65726f206164646044820152637265737360e01b6064820152608401610405565b610c37600082610a86565b6001600160a01b0383166000908152600360205260408120805460019290610c609084906119d4565b90915550506001600160a01b0382166000908152600360205260408120805460019290610c8e9084906119eb565b909155505060008181526002602052604080822080546001600160a01b0319166001600160a01b0386811691821790925591518493918716917fddf252ad1be2c89b69c2b068fc378daa952ba7f163c4a11628f55a4df523b3ef91a4505050565b6007546001600160a01b031633146106e75760405162461bcd60e51b815260206004820181905260248201527f4f776e61626c653a2063616c6c6572206973206e6f7420746865206f776e65726044820152606401610405565b600780546001600160a01b038381166001600160a01b0319831681179093556040519116919082907f8be0079c531659141344cd1fd0a4f28419497f9722a3daafe3b4186f6b6457e090600090a35050565b816001600160a01b0316836001600160a01b03161415610df95760405162461bcd60e51b815260206004820152601960248201527822a9219b99189d1030b8383937bb32903a379031b0b63632b960391b6044820152606401610405565b6001600160a01b03838116600081815260056020908152604080832094871680845294825291829020805460ff191686151590811790915591519182527f17307eab39ab6107e8899845ad3d59bd9653f200f220920489ca2b5937696c31910160405180910390a3505050565b610e71848484610b53565b610e7d84848484611064565b6107395760405162461bcd60e51b815260040161040590611a03565b6060610ea482610a61565b60008281526006602052604081208054610ebd90611864565b80601f0160208091040260200160405190810160405280929190818152602001828054610ee990611864565b8015610f365780601f10610f0b57610100808354040283529160200191610f36565b820191906000526020600020905b815481529060010190602001808311610f1957829003601f168201915b505050505090506000610f5460408051602081019091526000815290565b9050805160001415610f67575092915050565b815115610f99578082604051602001610f81929190611a55565b60405160208183030381529060405292505050919050565b610b4b84611171565b6107038282604051806020016040528060008152506111e5565b610fc582611047565b6110285760405162461bcd60e51b815260206004820152602e60248201527f45524337323155524953746f726167653a2055524920736574206f66206e6f6e60448201526d32bc34b9ba32b73a103a37b5b2b760911b6064820152608401610405565b600082815260066020908152604090912082516104a692840190611449565b6000908152600260205260409020546001600160a01b0316151590565b60006001600160a01b0384163b1561116657604051630a85bd0160e11b81526001600160a01b0385169063150b7a02906110a8903390899088908890600401611a84565b602060405180830381600087803b1580156110c257600080fd5b505af19250505080156110f2575060408051601f3d908101601f191682019092526110ef91810190611ac1565b60015b61114c573d808015611120576040519150601f19603f3d011682016040523d82523d6000602084013e611125565b606091505b5080516111445760405162461bcd60e51b815260040161040590611a03565b805181602001fd5b6001600160e01b031916630a85bd0160e11b149050610b4b565b506001949350505050565b606061117c82610a61565b600061119360408051602081019091526000815290565b905060008151116111b357604051806020016040528060008152506111de565b806111bd84611218565b6040516020016111ce929190611a55565b6040516020818303038152906040525b9392505050565b6111ef8383611316565b6111fc6000848484611064565b6104a65760405162461bcd60e51b815260040161040590611a03565b60608161123c5750506040805180820190915260018152600360fc1b602082015290565b8160005b81156112665780611250816119b9565b915061125f9050600a83611af4565b9150611240565b60008167ffffffffffffffff811115611281576112816116ca565b6040519080825280601f01601f1916602001820160405280156112ab576020820181803683370190505b5090505b8415610b4b576112c06001836119d4565b91506112cd600a86611b08565b6112d89060306119eb565b60f81b8183815181106112ed576112ed61191f565b60200101906001600160f81b031916908160001a90535061130f600a86611af4565b94506112af565b6001600160a01b03821661136c5760405162461bcd60e51b815260206004820181905260248201527f4552433732313a206d696e7420746f20746865207a65726f20616464726573736044820152606401610405565b61137581611047565b156113c25760405162461bcd60e51b815260206004820152601c60248201527f4552433732313a20746f6b656e20616c7265616479206d696e746564000000006044820152606401610405565b6001600160a01b03821660009081526003602052604081208054600192906113eb9084906119eb565b909155505060008181526002602052604080822080546001600160a01b0319166001600160a01b03861690811790915590518392907fddf252ad1be2c89b69c2b068fc378daa952ba7f163c4a11628f55a4df523b3ef908290a45050565b82805461145590611864565b90600052602060002090601f01602090048101928261147757600085556114bd565b82601f1061149057805160ff19168380011785556114bd565b828001600101855582156114bd579182015b828111156114bd5782518255916020019190600101906114a2565b506114c99291506114cd565b5090565b5b808211156114c957600081556001016114ce565b6001600160e01b031981168114610a5557600080fd5b60006020828403121561150a57600080fd5b81356111de816114e2565b60005b83811015611530578181015183820152602001611518565b838111156107395750506000910152565b60008151808452611559816020860160208601611515565b601f01601f19169290920160200192915050565b6020815260006111de6020830184611541565b60006020828403121561159257600080fd5b5035919050565b80356001600160a01b03811681146115b057600080fd5b919050565b600080604083850312156115c857600080fd5b6115d183611599565b946020939093013593505050565b60208152815160208201526000602083015160a0604084015261160560c0840182611541565b905060018060a01b03604085015116606084015260608401516080840152608084015160a08401528091505092915050565b60008060006060848603121561164c57600080fd5b61165584611599565b925061166360208501611599565b9150604084013590509250925092565b60006020828403121561168557600080fd5b6111de82611599565b600080604083850312156116a157600080fd5b6116aa83611599565b9150602083013580151581146116bf57600080fd5b809150509250929050565b634e487b7160e01b600052604160045260246000fd5b600080600080608085870312156116f657600080fd5b6116ff85611599565b935061170d60208601611599565b925060408501359150606085013567ffffffffffffffff8082111561173157600080fd5b818701915087601f83011261174557600080fd5b813581811115611757576117576116ca565b604051601f8201601f19908116603f0116810190838211818310171561177f5761177f6116ca565b816040528281528a602084870101111561179857600080fd5b82602086016020830137600060208483010152809550505050505092959194509250565b600080602083850312156117cf57600080fd5b823567ffffffffffffffff808211156117e757600080fd5b818501915085601f8301126117fb57600080fd5b81358181111561180a57600080fd5b8660208260051b850101111561181f57600080fd5b60209290920196919550909350505050565b6000806040838503121561184457600080fd5b61184d83611599565b915061185b60208401611599565b90509250929050565b600181811c9082168061187857607f821691505b6020821081141561189957634e487b7160e01b600052602260045260246000fd5b50919050565b6020808252602e908201527f4552433732313a2063616c6c6572206973206e6f7420746f6b656e206f776e6560408201526d1c881b9bdc88185c1c1c9bdd995960921b606082015260800190565b602080825260189082015277115490cdcc8c4e881a5b9d985b1a59081d1bdad95b88125160421b604082015260600190565b634e487b7160e01b600052603260045260246000fd5b60008235609e1983360301811261194b57600080fd5b9190910192915050565b6000808335601e1984360301811261196c57600080fd5b83018035915067ffffffffffffffff82111561198757600080fd5b60200191503681900382131561199c57600080fd5b9250929050565b634e487b7160e01b600052601160045260246000fd5b60006000198214156119cd576119cd6119a3565b5060010190565b6000828210156119e6576119e66119a3565b500390565b600082198211156119fe576119fe6119a3565b500190565b60208082526032908201527f4552433732313a207472616e7366657220746f206e6f6e20455243373231526560408201527131b2b4bb32b91034b6b83632b6b2b73a32b960711b606082015260800190565b60008351611a67818460208801611515565b835190830190611a7b818360208801611515565b01949350505050565b6001600160a01b0385811682528416602082015260408101839052608060608201819052600090611ab790830184611541565b9695505050505050565b600060208284031215611ad357600080fd5b81516111de816114e2565b634e487b7160e01b600052601260045260246000fd5b600082611b0357611b03611ade565b500490565b600082611b1757611b17611ade565b50069056fea2646970667358221220c01272f52d39414ea2092d15005989df0cfd2636f25082df510c7a188407110a64736f6c63430008090033",
  "devdoc": {
    "kind": "dev",
    "methods": {
      "approve(address,uint256)": {
        "details": "See {IERC721-approve}."
      },
      "balanceOf(address)": {
        "details": "See {IERC721-balanceOf}."
      },
      "getApproved(uint256)": {
        "details": "See {IERC721-getApproved}."
      },
      "isApprovedForAll(address,address)": {
        "details": "See {IERC721-isApprovedForAll}."
      },
      "name()": {
        "details": "See {IERC721Metadata-name}."
      },
      "owner()": {
        "details": "Returns the address of the current owner."
      },
      "ownerOf(uint256)": {
        "details": "See {IERC721-ownerOf}."
      },
      "renounceOwnership()": {
        "details": "Leaves the contract without owner. It will not be possible to call `onlyOwner` functions anymore. Can only be called by the current owner. NOTE: Renouncing ownership will leave the contract without an owner, thereby removing any functionality that is only available to the owner."
      },
      "safeTransferFrom(address,address,uint256)": {
        "details": "See {IERC721-safeTransferFrom}."
      },
      "safeTransferFrom(address,address,uint256,bytes)": {
        "details": "See {IERC721-safeTransferFrom}."
      },
      "setApprovalForAll(address,bool)": {
        "details": "See {IERC721-setApprovalForAll}."
      },
      "supportsInterface(bytes4)": {
        "details": "See {IERC165-supportsInterface}."
      },
      "symbol()": {
        "details": "See {IERC721Metadata-symbol}."
      },
      "transferFrom(address,address,uint256)": {
        "details": "See {IERC721-transferFrom}."
      },
      "transferOwnership(address)": {
        "details": "Transfers ownership of the contract to a new account (`newOwner`). Can only be called by the current owner."
      }
    },
    "version": 1
  },
  "userdoc": {
    "kind": "user",
    "methods": {},
    "version": 1
  },
  "storageLayout": {
    "storage": [
      {
        "astId": 138,
        "contract": "contracts/CryplantNFT.sol:CryplantNFT",
        "label": "_name",
        "offset": 0,
        "slot": "0",
        "type": "t_string_storage"
      },
      {
        "astId": 140,
        "contract": "contracts/CryplantNFT.sol:CryplantNFT",
        "label": "_symbol",
        "offset": 0,
        "slot": "1",
        "type": "t_string_storage"
      },
      {
        "astId": 144,
        "contract": "contracts/CryplantNFT.sol:CryplantNFT",
        "label": "_owners",
        "offset": 0,
        "slot": "2",
        "type": "t_mapping(t_uint256,t_address)"
      },
      {
        "astId": 148,
        "contract": "contracts/CryplantNFT.sol:CryplantNFT",
        "label": "_balances",
        "offset": 0,
        "slot": "3",
        "type": "t_mapping(t_address,t_uint256)"
      },
      {
        "astId": 152,
        "contract": "contracts/CryplantNFT.sol:CryplantNFT",
        "label": "_tokenApprovals",
        "offset": 0,
        "slot": "4",
        "type": "t_mapping(t_uint256,t_address)"
      },
      {
        "astId": 158,
        "contract": "contracts/CryplantNFT.sol:CryplantNFT",
        "label": "_operatorApprovals",
        "offset": 0,
        "slot": "5",
        "type": "t_mapping(t_address,t_mapping(t_address,t_bool))"
      },
      {
        "astId": 1126,
        "contract": "contracts/CryplantNFT.sol:CryplantNFT",
        "label": "_tokenURIs",
        "offset": 0,
        "slot": "6",
        "type": "t_mapping(t_uint256,t_string_storage)"
      },
      {
        "astId": 7,
        "contract": "contracts/CryplantNFT.sol:CryplantNFT",
        "label": "_owner",
        "offset": 0,
        "slot": "7",
        "type": "t_address"
      },
      {
        "astId": 1938,
        "contract": "contracts/CryplantNFT.sol:CryplantNFT",
        "label": "_tokenIdCounter",
        "offset": 0,
        "slot": "8",
        "type": "t_struct(Counter)1588_storage"
      },
      {
        "astId": 1954,
        "contract": "contracts/CryplantNFT.sol:CryplantNFT",
        "label": "_infos",
        "offset": 0,
        "slot": "9",
        "type": "t_mapping(t_uint256,t_struct(Info)1949_storage)"
      }
    ],
    "types": {
      "t_address": {
        "encoding": "inplace",
        "label": "address",
        "numberOfBytes": "20"
      },
      "t_bool": {
        "encoding": "inplace",
        "label": "bool",
        "numberOfBytes": "1"
      },
      "t_mapping(t_address,t_bool)": {
        "encoding": "mapping",
        "key": "t_address",
        "label": "mapping(address => bool)",
        "numberOfBytes": "32",
        "value": "t_bool"
      },
      "t_mapping(t_address,t_mapping(t_address,t_bool))": {
        "encoding": "mapping",
        "key": "t_address",
        "label": "mapping(address => mapping(address => bool))",
        "numberOfBytes": "32",
        "value": "t_mapping(t_address,t_bool)"
      },
      "t_mapping(t_address,t_uint256)": {
        "encoding": "mapping",
        "key": "t_address",
        "label": "mapping(address => uint256)",
        "numberOfBytes": "32",
        "value": "t_uint256"
      },
      "t_mapping(t_uint256,t_address)": {
        "encoding": "mapping",
        "key": "t_uint256",
        "label": "mapping(uint256 => address)",
        "numberOfBytes": "32",
        "value": "t_address"
      },
      "t_mapping(t_uint256,t_string_storage)": {
        "encoding": "mapping",
        "key": "t_uint256",
        "label": "mapping(uint256 => string)",
        "numberOfBytes": "32",
        "value": "t_string_storage"
      },
      "t_mapping(t_uint256,t_struct(Info)1949_storage)": {
        "encoding": "mapping",
        "key": "t_uint256",
        "label": "mapping(uint256 => struct CryplantNFT.Info)",
        "numberOfBytes": "32",
        "value": "t_struct(Info)1949_storage"
      },
      "t_string_storage": {
        "encoding": "bytes",
        "label": "string",
        "numberOfBytes": "32"
      },
      "t_struct(Counter)1588_storage": {
        "encoding": "inplace",
        "label": "struct Counters.Counter",
        "members": [
          {
            "astId": 1587,
            "contract": "contracts/CryplantNFT.sol:CryplantNFT",
            "label": "_value",
            "offset": 0,
            "slot": "0",
            "type": "t_uint256"
          }
        ],
        "numberOfBytes": "32"
      },
      "t_struct(Info)1949_storage": {
        "encoding": "inplace",
        "label": "struct CryplantNFT.Info",
        "members": [
          {
            "astId": 1940,
            "contract": "contracts/CryplantNFT.sol:CryplantNFT",
            "label": "tokenId",
            "offset": 0,
            "slot": "0",
            "type": "t_uint256"
          },
          {
            "astId": 1942,
            "contract": "contracts/CryplantNFT.sol:CryplantNFT",
            "label": "name",
            "offset": 0,
            "slot": "1",
            "type": "t_string_storage"
          },
          {
            "astId": 1944,
            "contract": "contracts/CryplantNFT.sol:CryplantNFT",
            "label": "owner",
            "offset": 0,
            "slot": "2",
            "type": "t_address"
          },
          {
            "astId": 1946,
            "contract": "contracts/CryplantNFT.sol:CryplantNFT",
            "label": "level",
            "offset": 0,
            "slot": "3",
            "type": "t_uint256"
          },
          {
            "astId": 1948,
            "contract": "contracts/CryplantNFT.sol:CryplantNFT",
            "label": "toNextlevel",
            "offset": 0,
            "slot": "4",
            "type": "t_uint256"
          }
        ],
        "numberOfBytes": "160"
      },
      "t_uint256": {
        "encoding": "inplace",
        "label": "uint256",
        "numberOfBytes": "32"
      }
    }
  }
}